{
  "_format": "hh-sol-artifact-1",
  "contractName": "MyNFT",
  "sourceName": "contracts/NFT.sol",
  "abi": [
    {
      "inputs": [],
      "stateMutability": "nonpayable",
      "type": "constructor"
    },
    {
      "inputs": [],
      "name": "AccessControlBadConfirmation",
      "type": "error"
    },
    {
      "inputs": [
        {
          "internalType": "address",
          "name": "account",
          "type": "address"
        },
        {
          "internalType": "bytes32",
          "name": "neededRole",
          "type": "bytes32"
        }
      ],
      "name": "AccessControlUnauthorizedAccount",
      "type": "error"
    },
    {
      "inputs": [
        {
          "internalType": "address",
          "name": "target",
          "type": "address"
        }
      ],
      "name": "AddressEmptyCode",
      "type": "error"
    },
    {
      "inputs": [
        {
          "internalType": "address",
          "name": "implementation",
          "type": "address"
        }
      ],
      "name": "ERC1967InvalidImplementation",
      "type": "error"
    },
    {
      "inputs": [],
      "name": "ERC1967NonPayable",
      "type": "error"
    },
    {
      "inputs": [
        {
          "internalType": "address",
          "name": "sender",
          "type": "address"
        },
        {
          "internalType": "uint256",
          "name": "tokenId",
          "type": "uint256"
        },
        {
          "internalType": "address",
          "name": "owner",
          "type": "address"
        }
      ],
      "name": "ERC721IncorrectOwner",
      "type": "error"
    },
    {
      "inputs": [
        {
          "internalType": "address",
          "name": "operator",
          "type": "address"
        },
        {
          "internalType": "uint256",
          "name": "tokenId",
          "type": "uint256"
        }
      ],
      "name": "ERC721InsufficientApproval",
      "type": "error"
    },
    {
      "inputs": [
        {
          "internalType": "address",
          "name": "approver",
          "type": "address"
        }
      ],
      "name": "ERC721InvalidApprover",
      "type": "error"
    },
    {
      "inputs": [
        {
          "internalType": "address",
          "name": "operator",
          "type": "address"
        }
      ],
      "name": "ERC721InvalidOperator",
      "type": "error"
    },
    {
      "inputs": [
        {
          "internalType": "address",
          "name": "owner",
          "type": "address"
        }
      ],
      "name": "ERC721InvalidOwner",
      "type": "error"
    },
    {
      "inputs": [
        {
          "internalType": "address",
          "name": "receiver",
          "type": "address"
        }
      ],
      "name": "ERC721InvalidReceiver",
      "type": "error"
    },
    {
      "inputs": [
        {
          "internalType": "address",
          "name": "sender",
          "type": "address"
        }
      ],
      "name": "ERC721InvalidSender",
      "type": "error"
    },
    {
      "inputs": [
        {
          "internalType": "uint256",
          "name": "tokenId",
          "type": "uint256"
        }
      ],
      "name": "ERC721NonexistentToken",
      "type": "error"
    },
    {
      "inputs": [],
      "name": "FailedInnerCall",
      "type": "error"
    },
    {
      "inputs": [],
      "name": "InvalidInitialization",
      "type": "error"
    },
    {
      "inputs": [],
      "name": "NotInitializing",
      "type": "error"
    },
    {
      "inputs": [],
      "name": "UUPSUnauthorizedCallContext",
      "type": "error"
    },
    {
      "inputs": [
        {
          "internalType": "bytes32",
          "name": "slot",
          "type": "bytes32"
        }
      ],
      "name": "UUPSUnsupportedProxiableUUID",
      "type": "error"
    },
    {
      "anonymous": false,
      "inputs": [
        {
          "indexed": true,
          "internalType": "address",
          "name": "owner",
          "type": "address"
        },
        {
          "indexed": true,
          "internalType": "address",
          "name": "approved",
          "type": "address"
        },
        {
          "indexed": true,
          "internalType": "uint256",
          "name": "tokenId",
          "type": "uint256"
        }
      ],
      "name": "Approval",
      "type": "event"
    },
    {
      "anonymous": false,
      "inputs": [
        {
          "indexed": true,
          "internalType": "address",
          "name": "owner",
          "type": "address"
        },
        {
          "indexed": true,
          "internalType": "address",
          "name": "operator",
          "type": "address"
        },
        {
          "indexed": false,
          "internalType": "bool",
          "name": "approved",
          "type": "bool"
        }
      ],
      "name": "ApprovalForAll",
      "type": "event"
    },
    {
      "anonymous": false,
      "inputs": [
        {
          "indexed": false,
          "internalType": "uint64",
          "name": "version",
          "type": "uint64"
        }
      ],
      "name": "Initialized",
      "type": "event"
    },
    {
      "anonymous": false,
      "inputs": [
        {
          "indexed": true,
          "internalType": "bytes32",
          "name": "role",
          "type": "bytes32"
        },
        {
          "indexed": true,
          "internalType": "bytes32",
          "name": "previousAdminRole",
          "type": "bytes32"
        },
        {
          "indexed": true,
          "internalType": "bytes32",
          "name": "newAdminRole",
          "type": "bytes32"
        }
      ],
      "name": "RoleAdminChanged",
      "type": "event"
    },
    {
      "anonymous": false,
      "inputs": [
        {
          "indexed": true,
          "internalType": "bytes32",
          "name": "role",
          "type": "bytes32"
        },
        {
          "indexed": true,
          "internalType": "address",
          "name": "account",
          "type": "address"
        },
        {
          "indexed": true,
          "internalType": "address",
          "name": "sender",
          "type": "address"
        }
      ],
      "name": "RoleGranted",
      "type": "event"
    },
    {
      "anonymous": false,
      "inputs": [
        {
          "indexed": true,
          "internalType": "bytes32",
          "name": "role",
          "type": "bytes32"
        },
        {
          "indexed": true,
          "internalType": "address",
          "name": "account",
          "type": "address"
        },
        {
          "indexed": true,
          "internalType": "address",
          "name": "sender",
          "type": "address"
        }
      ],
      "name": "RoleRevoked",
      "type": "event"
    },
    {
      "anonymous": false,
      "inputs": [
        {
          "indexed": true,
          "internalType": "address",
          "name": "from",
          "type": "address"
        },
        {
          "indexed": true,
          "internalType": "address",
          "name": "to",
          "type": "address"
        },
        {
          "indexed": true,
          "internalType": "uint256",
          "name": "tokenId",
          "type": "uint256"
        }
      ],
      "name": "Transfer",
      "type": "event"
    },
    {
      "anonymous": false,
      "inputs": [
        {
          "indexed": true,
          "internalType": "address",
          "name": "implementation",
          "type": "address"
        }
      ],
      "name": "Upgraded",
      "type": "event"
    },
    {
      "inputs": [],
      "name": "DEFAULT_ADMIN_ROLE",
      "outputs": [
        {
          "internalType": "bytes32",
          "name": "",
          "type": "bytes32"
        }
      ],
      "stateMutability": "view",
      "type": "function"
    },
    {
      "inputs": [],
      "name": "MINTER_ROLE",
      "outputs": [
        {
          "internalType": "bytes32",
          "name": "",
          "type": "bytes32"
        }
      ],
      "stateMutability": "view",
      "type": "function"
    },
    {
      "inputs": [],
      "name": "UPGRADE_INTERFACE_VERSION",
      "outputs": [
        {
          "internalType": "string",
          "name": "",
          "type": "string"
        }
      ],
      "stateMutability": "view",
      "type": "function"
    },
    {
      "inputs": [
        {
          "internalType": "address",
          "name": "to",
          "type": "address"
        },
        {
          "internalType": "uint256",
          "name": "tokenId",
          "type": "uint256"
        }
      ],
      "name": "approve",
      "outputs": [],
      "stateMutability": "nonpayable",
      "type": "function"
    },
    {
      "inputs": [
        {
          "internalType": "address",
          "name": "owner",
          "type": "address"
        }
      ],
      "name": "balanceOf",
      "outputs": [
        {
          "internalType": "uint256",
          "name": "",
          "type": "uint256"
        }
      ],
      "stateMutability": "view",
      "type": "function"
    },
    {
      "inputs": [
        {
          "internalType": "uint256",
          "name": "tokenId",
          "type": "uint256"
        }
      ],
      "name": "getApproved",
      "outputs": [
        {
          "internalType": "address",
          "name": "",
          "type": "address"
        }
      ],
      "stateMutability": "view",
      "type": "function"
    },
    {
      "inputs": [
        {
          "internalType": "bytes32",
          "name": "role",
          "type": "bytes32"
        }
      ],
      "name": "getRoleAdmin",
      "outputs": [
        {
          "internalType": "bytes32",
          "name": "",
          "type": "bytes32"
        }
      ],
      "stateMutability": "view",
      "type": "function"
    },
    {
      "inputs": [
        {
          "internalType": "bytes32",
          "name": "role",
          "type": "bytes32"
        },
        {
          "internalType": "address",
          "name": "account",
          "type": "address"
        }
      ],
      "name": "grantRole",
      "outputs": [],
      "stateMutability": "nonpayable",
      "type": "function"
    },
    {
      "inputs": [
        {
          "internalType": "bytes32",
          "name": "role",
          "type": "bytes32"
        },
        {
          "internalType": "address",
          "name": "account",
          "type": "address"
        }
      ],
      "name": "hasRole",
      "outputs": [
        {
          "internalType": "bool",
          "name": "",
          "type": "bool"
        }
      ],
      "stateMutability": "view",
      "type": "function"
    },
    {
      "inputs": [
        {
          "internalType": "address",
          "name": "defaultAdmin",
          "type": "address"
        }
      ],
      "name": "initialize",
      "outputs": [],
      "stateMutability": "nonpayable",
      "type": "function"
    },
    {
      "inputs": [
        {
          "internalType": "address",
          "name": "owner",
          "type": "address"
        },
        {
          "internalType": "address",
          "name": "operator",
          "type": "address"
        }
      ],
      "name": "isApprovedForAll",
      "outputs": [
        {
          "internalType": "bool",
          "name": "",
          "type": "bool"
        }
      ],
      "stateMutability": "view",
      "type": "function"
    },
    {
      "inputs": [],
      "name": "name",
      "outputs": [
        {
          "internalType": "string",
          "name": "",
          "type": "string"
        }
      ],
      "stateMutability": "view",
      "type": "function"
    },
    {
      "inputs": [
        {
          "internalType": "uint256",
          "name": "tokenId",
          "type": "uint256"
        }
      ],
      "name": "ownerOf",
      "outputs": [
        {
          "internalType": "address",
          "name": "",
          "type": "address"
        }
      ],
      "stateMutability": "view",
      "type": "function"
    },
    {
      "inputs": [],
      "name": "proxiableUUID",
      "outputs": [
        {
          "internalType": "bytes32",
          "name": "",
          "type": "bytes32"
        }
      ],
      "stateMutability": "view",
      "type": "function"
    },
    {
      "inputs": [
        {
          "internalType": "bytes32",
          "name": "role",
          "type": "bytes32"
        },
        {
          "internalType": "address",
          "name": "callerConfirmation",
          "type": "address"
        }
      ],
      "name": "renounceRole",
      "outputs": [],
      "stateMutability": "nonpayable",
      "type": "function"
    },
    {
      "inputs": [
        {
          "internalType": "bytes32",
          "name": "role",
          "type": "bytes32"
        },
        {
          "internalType": "address",
          "name": "account",
          "type": "address"
        }
      ],
      "name": "revokeRole",
      "outputs": [],
      "stateMutability": "nonpayable",
      "type": "function"
    },
    {
      "inputs": [
        {
          "internalType": "address",
          "name": "to",
          "type": "address"
        }
      ],
      "name": "safeMint",
      "outputs": [],
      "stateMutability": "nonpayable",
      "type": "function"
    },
    {
      "inputs": [
        {
          "internalType": "address",
          "name": "from",
          "type": "address"
        },
        {
          "internalType": "address",
          "name": "to",
          "type": "address"
        },
        {
          "internalType": "uint256",
          "name": "tokenId",
          "type": "uint256"
        }
      ],
      "name": "safeTransferFrom",
      "outputs": [],
      "stateMutability": "nonpayable",
      "type": "function"
    },
    {
      "inputs": [
        {
          "internalType": "address",
          "name": "from",
          "type": "address"
        },
        {
          "internalType": "address",
          "name": "to",
          "type": "address"
        },
        {
          "internalType": "uint256",
          "name": "tokenId",
          "type": "uint256"
        },
        {
          "internalType": "bytes",
          "name": "data",
          "type": "bytes"
        }
      ],
      "name": "safeTransferFrom",
      "outputs": [],
      "stateMutability": "nonpayable",
      "type": "function"
    },
    {
      "inputs": [
        {
          "internalType": "address",
          "name": "operator",
          "type": "address"
        },
        {
          "internalType": "bool",
          "name": "approved",
          "type": "bool"
        }
      ],
      "name": "setApprovalForAll",
      "outputs": [],
      "stateMutability": "nonpayable",
      "type": "function"
    },
    {
      "inputs": [
        {
          "internalType": "bytes4",
          "name": "interfaceId",
          "type": "bytes4"
        }
      ],
      "name": "supportsInterface",
      "outputs": [
        {
          "internalType": "bool",
          "name": "",
          "type": "bool"
        }
      ],
      "stateMutability": "view",
      "type": "function"
    },
    {
      "inputs": [],
      "name": "symbol",
      "outputs": [
        {
          "internalType": "string",
          "name": "",
          "type": "string"
        }
      ],
      "stateMutability": "view",
      "type": "function"
    },
    {
      "inputs": [
        {
          "internalType": "uint256",
          "name": "tokenId",
          "type": "uint256"
        }
      ],
      "name": "tokenURI",
      "outputs": [
        {
          "internalType": "string",
          "name": "",
          "type": "string"
        }
      ],
      "stateMutability": "view",
      "type": "function"
    },
    {
      "inputs": [
        {
          "internalType": "address",
          "name": "from",
          "type": "address"
        },
        {
          "internalType": "address",
          "name": "to",
          "type": "address"
        },
        {
          "internalType": "uint256",
          "name": "tokenId",
          "type": "uint256"
        }
      ],
      "name": "transferFrom",
      "outputs": [],
      "stateMutability": "nonpayable",
      "type": "function"
    },
    {
      "inputs": [
        {
          "internalType": "address",
          "name": "newImplementation",
          "type": "address"
        },
        {
          "internalType": "bytes",
          "name": "data",
          "type": "bytes"
        }
      ],
      "name": "upgradeToAndCall",
      "outputs": [],
      "stateMutability": "payable",
      "type": "function"
    }
  ],
  "bytecode": "0x60a06040523073ffffffffffffffffffffffffffffffffffffffff1660809073ffffffffffffffffffffffffffffffffffffffff168152503480156200004457600080fd5b50620000556200005b60201b60201c565b620001cf565b60006200006d6200016560201b60201c565b90508060000160089054906101000a900460ff1615620000b9576040517ff92ee8a900000000000000000000000000000000000000000000000000000000815260040160405180910390fd5b67ffffffffffffffff80168160000160009054906101000a900467ffffffffffffffff1667ffffffffffffffff1614620001625767ffffffffffffffff8160000160006101000a81548167ffffffffffffffff021916908367ffffffffffffffff1602179055507fc7f505b2f371ae2175ee4913f4499e1f2633a7b5936321eed1cdaeb6115181d267ffffffffffffffff604051620001599190620001b2565b60405180910390a15b50565b60007ff0c57e16840df040f15088dc2f81fe391c3923bec73e23a9662efc9c229c6a00905090565b600067ffffffffffffffff82169050919050565b620001ac816200018d565b82525050565b6000602082019050620001c96000830184620001a1565b92915050565b6080516135aa620001f960003960008181611599015281816115ee01526117af01526135aa6000f3fe6080604052600436106101665760003560e01c80636352211e116100d1578063ad3cb1cc1161008a578063c87b56dd11610064578063c87b56dd1461053d578063d53913931461057a578063d547741f146105a5578063e985e9c5146105ce57610166565b8063ad3cb1cc146104c0578063b88d4fde146104eb578063c4d66de81461051457610166565b80636352211e1461038a57806370a08231146103c757806391d148541461040457806395d89b4114610441578063a217fddf1461046c578063a22cb4651461049757610166565b80632f2ff15d116101235780632f2ff15d1461029f57806336568abe146102c857806340d097c3146102f157806342842e0e1461031a5780634f1ef2861461034357806352d1902d1461035f57610166565b806301ffc9a71461016b57806306fdde03146101a8578063081812fc146101d3578063095ea7b31461021057806323b872dd14610239578063248a9ca314610262575b600080fd5b34801561017757600080fd5b50610192600480360381019061018d91906128ae565b61060b565b60405161019f91906128f6565b60405180910390f35b3480156101b457600080fd5b506101bd61061d565b6040516101ca91906129a1565b60405180910390f35b3480156101df57600080fd5b506101fa60048036038101906101f591906129f9565b6106be565b6040516102079190612a67565b60405180910390f35b34801561021c57600080fd5b5061023760048036038101906102329190612aae565b6106da565b005b34801561024557600080fd5b50610260600480360381019061025b9190612aee565b6106f0565b005b34801561026e57600080fd5b5061028960048036038101906102849190612b77565b6107f2565b6040516102969190612bb3565b60405180910390f35b3480156102ab57600080fd5b506102c660048036038101906102c19190612bce565b610820565b005b3480156102d457600080fd5b506102ef60048036038101906102ea9190612bce565b610842565b005b3480156102fd57600080fd5b5061031860048036038101906103139190612c0e565b6108bd565b005b34801561032657600080fd5b50610341600480360381019061033c9190612aee565b610910565b005b61035d60048036038101906103589190612d70565b610930565b005b34801561036b57600080fd5b5061037461094f565b6040516103819190612bb3565b60405180910390f35b34801561039657600080fd5b506103b160048036038101906103ac91906129f9565b610982565b6040516103be9190612a67565b60405180910390f35b3480156103d357600080fd5b506103ee60048036038101906103e99190612c0e565b610994565b6040516103fb9190612ddb565b60405180910390f35b34801561041057600080fd5b5061042b60048036038101906104269190612bce565b610a5d565b60405161043891906128f6565b60405180910390f35b34801561044d57600080fd5b50610456610ad6565b60405161046391906129a1565b60405180910390f35b34801561047857600080fd5b50610481610b77565b60405161048e9190612bb3565b60405180910390f35b3480156104a357600080fd5b506104be60048036038101906104b99190612e22565b610b7e565b005b3480156104cc57600080fd5b506104d5610b94565b6040516104e291906129a1565b60405180910390f35b3480156104f757600080fd5b50610512600480360381019061050d9190612e62565b610bcd565b005b34801561052057600080fd5b5061053b60048036038101906105369190612c0e565b610bea565b005b34801561054957600080fd5b50610564600480360381019061055f91906129f9565b610e2d565b60405161057191906129a1565b60405180910390f35b34801561058657600080fd5b5061058f610e96565b60405161059c9190612bb3565b60405180910390f35b3480156105b157600080fd5b506105cc60048036038101906105c79190612bce565b610eba565b005b3480156105da57600080fd5b506105f560048036038101906105f09190612ee5565b610edc565b60405161060291906128f6565b60405180910390f35b600061061682610f7e565b9050919050565b60606000610629610ff8565b905080600001805461063a90612f54565b80601f016020809104026020016040519081016040528092919081815260200182805461066690612f54565b80156106b35780601f10610688576101008083540402835291602001916106b3565b820191906000526020600020905b81548152906001019060200180831161069657829003601f168201915b505050505091505090565b60006106c982611020565b506106d3826110a8565b9050919050565b6106ec82826106e76110f3565b6110fb565b5050565b600073ffffffffffffffffffffffffffffffffffffffff168273ffffffffffffffffffffffffffffffffffffffff16036107625760006040517f64a0ae920000000000000000000000000000000000000000000000000000000081526004016107599190612a67565b60405180910390fd5b600061077683836107716110f3565b61110d565b90508373ffffffffffffffffffffffffffffffffffffffff168173ffffffffffffffffffffffffffffffffffffffff16146107ec578382826040517f64283d7b0000000000000000000000000000000000000000000000000000000081526004016107e393929190612f85565b60405180910390fd5b50505050565b6000806107fd61133a565b905080600001600084815260200190815260200160002060010154915050919050565b610829826107f2565b61083281611362565b61083c8383611376565b50505050565b61084a6110f3565b73ffffffffffffffffffffffffffffffffffffffff168173ffffffffffffffffffffffffffffffffffffffff16146108ae576040517f6697b23200000000000000000000000000000000000000000000000000000000815260040160405180910390fd5b6108b88282611477565b505050565b7f9f2df0fed2c77648de5860a4cc508cd0818c85b8b8a1ab4ceeef8d981c8956a66108e781611362565b60008060008154809291906108fb90612feb565b91905055905061090b8382611579565b505050565b61092b83838360405180602001604052806000815250610bcd565b505050565b610938611597565b6109418261167d565b61094b828261168e565b5050565b60006109596117ad565b7f360894a13ba1a3210667c828492db98dca3e2076cc3735a920a3ca505d382bbc60001b905090565b600061098d82611020565b9050919050565b60008061099f610ff8565b9050600073ffffffffffffffffffffffffffffffffffffffff168373ffffffffffffffffffffffffffffffffffffffff1603610a135760006040517f89c62b64000000000000000000000000000000000000000000000000000000008152600401610a0a9190612a67565b60405180910390fd5b8060030160008473ffffffffffffffffffffffffffffffffffffffff1673ffffffffffffffffffffffffffffffffffffffff16815260200190815260200160002054915050919050565b600080610a6861133a565b905080600001600085815260200190815260200160002060000160008473ffffffffffffffffffffffffffffffffffffffff1673ffffffffffffffffffffffffffffffffffffffff16815260200190815260200160002060009054906101000a900460ff1691505092915050565b60606000610ae2610ff8565b9050806001018054610af390612f54565b80601f0160208091040260200160405190810160405280929190818152602001828054610b1f90612f54565b8015610b6c5780601f10610b4157610100808354040283529160200191610b6c565b820191906000526020600020905b815481529060010190602001808311610b4f57829003601f168201915b505050505091505090565b6000801b81565b610b90610b896110f3565b8383611834565b5050565b6040518060400160405280600581526020017f352e302e3000000000000000000000000000000000000000000000000000000081525081565b610bd88484846106f0565b610be4848484846119b2565b50505050565b6000610bf4611b69565b905060008160000160089054906101000a900460ff1615905060008260000160009054906101000a900467ffffffffffffffff1690506000808267ffffffffffffffff16148015610c425750825b9050600060018367ffffffffffffffff16148015610c77575060003073ffffffffffffffffffffffffffffffffffffffff163b145b905081158015610c85575080155b15610cbc576040517ff92ee8a900000000000000000000000000000000000000000000000000000000815260040160405180910390fd5b60018560000160006101000a81548167ffffffffffffffff021916908367ffffffffffffffff1602179055508315610d0c5760018560000160086101000a81548160ff0219169083151502179055505b610d806040518060400160405280600581526020017f4d794e46540000000000000000000000000000000000000000000000000000008152506040518060400160405280600381526020017f4d46540000000000000000000000000000000000000000000000000000000000815250611b91565b610d88611ba7565b610d90611bb1565b610d9d6000801b87611376565b50610dc87f9f2df0fed2c77648de5860a4cc508cd0818c85b8b8a1ab4ceeef8d981c8956a687611376565b508315610e255760008560000160086101000a81548160ff0219169083151502179055507fc7f505b2f371ae2175ee4913f4499e1f2633a7b5936321eed1cdaeb6115181d26001604051610e1c919061308c565b60405180910390a15b505050505050565b6060610e3882611020565b506000610e43611bbb565b90506000815111610e635760405180602001604052806000815250610e8e565b80610e6d84611bf8565b604051602001610e7e9291906130e3565b6040516020818303038152906040525b915050919050565b7f9f2df0fed2c77648de5860a4cc508cd0818c85b8b8a1ab4ceeef8d981c8956a681565b610ec3826107f2565b610ecc81611362565b610ed68383611477565b50505050565b600080610ee7610ff8565b90508060050160008573ffffffffffffffffffffffffffffffffffffffff1673ffffffffffffffffffffffffffffffffffffffff16815260200190815260200160002060008473ffffffffffffffffffffffffffffffffffffffff1673ffffffffffffffffffffffffffffffffffffffff16815260200190815260200160002060009054906101000a900460ff1691505092915050565b60007f7965db0b000000000000000000000000000000000000000000000000000000007bffffffffffffffffffffffffffffffffffffffffffffffffffffffff1916827bffffffffffffffffffffffffffffffffffffffffffffffffffffffff19161480610ff15750610ff082611cc6565b5b9050919050565b60007f80bb2b638cc20bc4d0a60d66940f3ab4a00c1d7b313497ca82fb0b4ab0079300905090565b60008061102c83611da8565b9050600073ffffffffffffffffffffffffffffffffffffffff168173ffffffffffffffffffffffffffffffffffffffff160361109f57826040517f7e2732890000000000000000000000000000000000000000000000000000000081526004016110969190612ddb565b60405180910390fd5b80915050919050565b6000806110b3610ff8565b905080600401600084815260200190815260200160002060009054906101000a900473ffffffffffffffffffffffffffffffffffffffff16915050919050565b600033905090565b6111088383836001611df3565b505050565b600080611118610ff8565b9050600061112585611da8565b9050600073ffffffffffffffffffffffffffffffffffffffff168473ffffffffffffffffffffffffffffffffffffffff161461116757611166818587611fc7565b5b600073ffffffffffffffffffffffffffffffffffffffff168173ffffffffffffffffffffffffffffffffffffffff16146111fa576111a9600086600080611df3565b60018260030160008373ffffffffffffffffffffffffffffffffffffffff1673ffffffffffffffffffffffffffffffffffffffff168152602001908152602001600020600082825403925050819055505b600073ffffffffffffffffffffffffffffffffffffffff168673ffffffffffffffffffffffffffffffffffffffff161461127f5760018260030160008873ffffffffffffffffffffffffffffffffffffffff1673ffffffffffffffffffffffffffffffffffffffff168152602001908152602001600020600082825401925050819055505b8582600201600087815260200190815260200160002060006101000a81548173ffffffffffffffffffffffffffffffffffffffff021916908373ffffffffffffffffffffffffffffffffffffffff160217905550848673ffffffffffffffffffffffffffffffffffffffff168273ffffffffffffffffffffffffffffffffffffffff167fddf252ad1be2c89b69c2b068fc378daa952ba7f163c4a11628f55a4df523b3ef60405160405180910390a480925050509392505050565b60007f02dd7bc7dec4dceedda775e58dd541e08a116c6c53815c0bd028192f7b626800905090565b6113738161136e6110f3565b61208b565b50565b60008061138161133a565b905061138d8484610a5d565b61146b57600181600001600086815260200190815260200160002060000160008573ffffffffffffffffffffffffffffffffffffffff1673ffffffffffffffffffffffffffffffffffffffff16815260200190815260200160002060006101000a81548160ff0219169083151502179055506114076110f3565b73ffffffffffffffffffffffffffffffffffffffff168373ffffffffffffffffffffffffffffffffffffffff16857f2f8788117e7eff1d82e926ec794901d17c78024a50270940304540a733656f0d60405160405180910390a46001915050611471565b60009150505b92915050565b60008061148261133a565b905061148e8484610a5d565b1561156d57600081600001600086815260200190815260200160002060000160008573ffffffffffffffffffffffffffffffffffffffff1673ffffffffffffffffffffffffffffffffffffffff16815260200190815260200160002060006101000a81548160ff0219169083151502179055506115096110f3565b73ffffffffffffffffffffffffffffffffffffffff168373ffffffffffffffffffffffffffffffffffffffff16857ff6391f5c32d9c69d2a47ea670b442974b53935d1edc7fd64eb21e047a839171b60405160405180910390a46001915050611573565b60009150505b92915050565b6115938282604051806020016040528060008152506120dc565b5050565b7f000000000000000000000000000000000000000000000000000000000000000073ffffffffffffffffffffffffffffffffffffffff163073ffffffffffffffffffffffffffffffffffffffff16148061164457507f000000000000000000000000000000000000000000000000000000000000000073ffffffffffffffffffffffffffffffffffffffff1661162b6120f8565b73ffffffffffffffffffffffffffffffffffffffff1614155b1561167b576040517fe07c8dba00000000000000000000000000000000000000000000000000000000815260040160405180910390fd5b565b6000801b61168a81611362565b5050565b8173ffffffffffffffffffffffffffffffffffffffff166352d1902d6040518163ffffffff1660e01b8152600401602060405180830381865afa9250505080156116f657506040513d601f19601f820116820180604052508101906116f3919061311c565b60015b61173757816040517f4c9c8ce300000000000000000000000000000000000000000000000000000000815260040161172e9190612a67565b60405180910390fd5b7f360894a13ba1a3210667c828492db98dca3e2076cc3735a920a3ca505d382bbc60001b811461179e57806040517faa1d49a40000000000000000000000000000000000000000000000000000000081526004016117959190612bb3565b60405180910390fd5b6117a8838361214f565b505050565b7f000000000000000000000000000000000000000000000000000000000000000073ffffffffffffffffffffffffffffffffffffffff163073ffffffffffffffffffffffffffffffffffffffff1614611832576040517fe07c8dba00000000000000000000000000000000000000000000000000000000815260040160405180910390fd5b565b600061183e610ff8565b9050600073ffffffffffffffffffffffffffffffffffffffff168373ffffffffffffffffffffffffffffffffffffffff16036118b157826040517f5b08ba180000000000000000000000000000000000000000000000000000000081526004016118a89190612a67565b60405180910390fd5b818160050160008673ffffffffffffffffffffffffffffffffffffffff1673ffffffffffffffffffffffffffffffffffffffff16815260200190815260200160002060008573ffffffffffffffffffffffffffffffffffffffff1673ffffffffffffffffffffffffffffffffffffffff16815260200190815260200160002060006101000a81548160ff0219169083151502179055508273ffffffffffffffffffffffffffffffffffffffff168473ffffffffffffffffffffffffffffffffffffffff167f17307eab39ab6107e8899845ad3d59bd9653f200f220920489ca2b5937696c31846040516119a491906128f6565b60405180910390a350505050565b60008373ffffffffffffffffffffffffffffffffffffffff163b1115611b63578273ffffffffffffffffffffffffffffffffffffffff1663150b7a026119f66110f3565b8685856040518563ffffffff1660e01b8152600401611a18949392919061319e565b6020604051808303816000875af1925050508015611a5457506040513d601f19601f82011682018060405250810190611a5191906131ff565b60015b611ad8573d8060008114611a84576040519150601f19603f3d011682016040523d82523d6000602084013e611a89565b606091505b506000815103611ad057836040517f64a0ae92000000000000000000000000000000000000000000000000000000008152600401611ac79190612a67565b60405180910390fd5b805181602001fd5b63150b7a0260e01b7bffffffffffffffffffffffffffffffffffffffffffffffffffffffff1916817bffffffffffffffffffffffffffffffffffffffffffffffffffffffff191614611b6157836040517f64a0ae92000000000000000000000000000000000000000000000000000000008152600401611b589190612a67565b60405180910390fd5b505b50505050565b60007ff0c57e16840df040f15088dc2f81fe391c3923bec73e23a9662efc9c229c6a00905090565b611b996121c2565b611ba38282612202565b5050565b611baf6121c2565b565b611bb96121c2565b565b60606040518060400160405280600481526020017f7465737400000000000000000000000000000000000000000000000000000000815250905090565b606060006001611c078461223f565b01905060008167ffffffffffffffff811115611c2657611c25612c45565b5b6040519080825280601f01601f191660200182016040528015611c585781602001600182028036833780820191505090505b509050600082602001820190505b600115611cbb578080600190039150507f3031323334353637383961626364656600000000000000000000000000000000600a86061a8153600a8581611caf57611cae61322c565b5b04945060008503611c66575b819350505050919050565b60007f80ac58cd000000000000000000000000000000000000000000000000000000007bffffffffffffffffffffffffffffffffffffffffffffffffffffffff1916827bffffffffffffffffffffffffffffffffffffffffffffffffffffffff19161480611d9157507f5b5e139f000000000000000000000000000000000000000000000000000000007bffffffffffffffffffffffffffffffffffffffffffffffffffffffff1916827bffffffffffffffffffffffffffffffffffffffffffffffffffffffff1916145b80611da15750611da082612392565b5b9050919050565b600080611db3610ff8565b905080600201600084815260200190815260200160002060009054906101000a900473ffffffffffffffffffffffffffffffffffffffff16915050919050565b6000611dfd610ff8565b90508180611e385750600073ffffffffffffffffffffffffffffffffffffffff168373ffffffffffffffffffffffffffffffffffffffff1614155b15611f6c576000611e4885611020565b9050600073ffffffffffffffffffffffffffffffffffffffff168473ffffffffffffffffffffffffffffffffffffffff1614158015611eb357508373ffffffffffffffffffffffffffffffffffffffff168173ffffffffffffffffffffffffffffffffffffffff1614155b8015611ec65750611ec48185610edc565b155b15611f0857836040517fa9fbf51f000000000000000000000000000000000000000000000000000000008152600401611eff9190612a67565b60405180910390fd5b8215611f6a57848673ffffffffffffffffffffffffffffffffffffffff168273ffffffffffffffffffffffffffffffffffffffff167f8c5be1e5ebec7d5bd14f71427d1e84f3dd0314c0f7b2291e5b200ac8c7c3b92560405160405180910390a45b505b8481600401600086815260200190815260200160002060006101000a81548173ffffffffffffffffffffffffffffffffffffffff021916908373ffffffffffffffffffffffffffffffffffffffff1602179055505050505050565b611fd28383836123fc565b61208657600073ffffffffffffffffffffffffffffffffffffffff168373ffffffffffffffffffffffffffffffffffffffff160361204757806040517f7e27328900000000000000000000000000000000000000000000000000000000815260040161203e9190612ddb565b60405180910390fd5b81816040517f177e802f00000000000000000000000000000000000000000000000000000000815260040161207d92919061325b565b60405180910390fd5b505050565b6120958282610a5d565b6120d85780826040517fe2517d3f0000000000000000000000000000000000000000000000000000000081526004016120cf929190613284565b60405180910390fd5b5050565b6120e683836124bd565b6120f360008484846119b2565b505050565b60006121267f360894a13ba1a3210667c828492db98dca3e2076cc3735a920a3ca505d382bbc60001b6125b6565b60000160009054906101000a900473ffffffffffffffffffffffffffffffffffffffff16905090565b612158826125c0565b8173ffffffffffffffffffffffffffffffffffffffff167fbc7cd75a20ee27fd9adebab32041f755214dbc6bffa90cc0225b39da2e5c2d3b60405160405180910390a26000815111156121b5576121af828261268d565b506121be565b6121bd612711565b5b5050565b6121ca61274e565b612200576040517fd7e6bcf800000000000000000000000000000000000000000000000000000000815260040160405180910390fd5b565b61220a6121c2565b6000612214610ff8565b905082816000019081612227919061344f565b5081816001019081612239919061344f565b50505050565b600080600090507a184f03e93ff9f4daa797ed6e38ed64bf6a1f010000000000000000831061229d577a184f03e93ff9f4daa797ed6e38ed64bf6a1f01000000000000000083816122935761229261322c565b5b0492506040810190505b6d04ee2d6d415b85acef810000000083106122da576d04ee2d6d415b85acef810000000083816122d0576122cf61322c565b5b0492506020810190505b662386f26fc10000831061230957662386f26fc1000083816122ff576122fe61322c565b5b0492506010810190505b6305f5e1008310612332576305f5e10083816123285761232761322c565b5b0492506008810190505b612710831061235757612710838161234d5761234c61322c565b5b0492506004810190505b6064831061237a57606483816123705761236f61322c565b5b0492506002810190505b600a8310612389576001810190505b80915050919050565b60007f01ffc9a7000000000000000000000000000000000000000000000000000000007bffffffffffffffffffffffffffffffffffffffffffffffffffffffff1916827bffffffffffffffffffffffffffffffffffffffffffffffffffffffff1916149050919050565b60008073ffffffffffffffffffffffffffffffffffffffff168373ffffffffffffffffffffffffffffffffffffffff16141580156124b457508273ffffffffffffffffffffffffffffffffffffffff168473ffffffffffffffffffffffffffffffffffffffff16148061247557506124748484610edc565b5b806124b357508273ffffffffffffffffffffffffffffffffffffffff1661249b836110a8565b73ffffffffffffffffffffffffffffffffffffffff16145b5b90509392505050565b600073ffffffffffffffffffffffffffffffffffffffff168273ffffffffffffffffffffffffffffffffffffffff160361252f5760006040517f64a0ae920000000000000000000000000000000000000000000000000000000081526004016125269190612a67565b60405180910390fd5b600061253d8383600061110d565b9050600073ffffffffffffffffffffffffffffffffffffffff168173ffffffffffffffffffffffffffffffffffffffff16146125b15760006040517f73c6ac6e0000000000000000000000000000000000000000000000000000000081526004016125a89190612a67565b60405180910390fd5b505050565b6000819050919050565b60008173ffffffffffffffffffffffffffffffffffffffff163b0361261c57806040517f4c9c8ce30000000000000000000000000000000000000000000000000000000081526004016126139190612a67565b60405180910390fd5b806126497f360894a13ba1a3210667c828492db98dca3e2076cc3735a920a3ca505d382bbc60001b6125b6565b60000160006101000a81548173ffffffffffffffffffffffffffffffffffffffff021916908373ffffffffffffffffffffffffffffffffffffffff16021790555050565b60606000808473ffffffffffffffffffffffffffffffffffffffff16846040516126b7919061355d565b600060405180830381855af49150503d80600081146126f2576040519150601f19603f3d011682016040523d82523d6000602084013e6126f7565b606091505b509150915061270785838361276e565b9250505092915050565b600034111561274c576040517fb398979f00000000000000000000000000000000000000000000000000000000815260040160405180910390fd5b565b6000612758611b69565b60000160089054906101000a900460ff16905090565b6060826127835761277e826127fd565b6127f5565b600082511480156127ab575060008473ffffffffffffffffffffffffffffffffffffffff163b145b156127ed57836040517f9996b3150000000000000000000000000000000000000000000000000000000081526004016127e49190612a67565b60405180910390fd5b8190506127f6565b5b9392505050565b6000815111156128105780518082602001fd5b6040517f1425ea4200000000000000000000000000000000000000000000000000000000815260040160405180910390fd5b6000604051905090565b600080fd5b600080fd5b60007fffffffff0000000000000000000000000000000000000000000000000000000082169050919050565b61288b81612856565b811461289657600080fd5b50565b6000813590506128a881612882565b92915050565b6000602082840312156128c4576128c361284c565b5b60006128d284828501612899565b91505092915050565b60008115159050919050565b6128f0816128db565b82525050565b600060208201905061290b60008301846128e7565b92915050565b600081519050919050565b600082825260208201905092915050565b60005b8381101561294b578082015181840152602081019050612930565b60008484015250505050565b6000601f19601f8301169050919050565b600061297382612911565b61297d818561291c565b935061298d81856020860161292d565b61299681612957565b840191505092915050565b600060208201905081810360008301526129bb8184612968565b905092915050565b6000819050919050565b6129d6816129c3565b81146129e157600080fd5b50565b6000813590506129f3816129cd565b92915050565b600060208284031215612a0f57612a0e61284c565b5b6000612a1d848285016129e4565b91505092915050565b600073ffffffffffffffffffffffffffffffffffffffff82169050919050565b6000612a5182612a26565b9050919050565b612a6181612a46565b82525050565b6000602082019050612a7c6000830184612a58565b92915050565b612a8b81612a46565b8114612a9657600080fd5b50565b600081359050612aa881612a82565b92915050565b60008060408385031215612ac557612ac461284c565b5b6000612ad385828601612a99565b9250506020612ae4858286016129e4565b9150509250929050565b600080600060608486031215612b0757612b0661284c565b5b6000612b1586828701612a99565b9350506020612b2686828701612a99565b9250506040612b37868287016129e4565b9150509250925092565b6000819050919050565b612b5481612b41565b8114612b5f57600080fd5b50565b600081359050612b7181612b4b565b92915050565b600060208284031215612b8d57612b8c61284c565b5b6000612b9b84828501612b62565b91505092915050565b612bad81612b41565b82525050565b6000602082019050612bc86000830184612ba4565b92915050565b60008060408385031215612be557612be461284c565b5b6000612bf385828601612b62565b9250506020612c0485828601612a99565b9150509250929050565b600060208284031215612c2457612c2361284c565b5b6000612c3284828501612a99565b91505092915050565b600080fd5b600080fd5b7f4e487b7100000000000000000000000000000000000000000000000000000000600052604160045260246000fd5b612c7d82612957565b810181811067ffffffffffffffff82111715612c9c57612c9b612c45565b5b80604052505050565b6000612caf612842565b9050612cbb8282612c74565b919050565b600067ffffffffffffffff821115612cdb57612cda612c45565b5b612ce482612957565b9050602081019050919050565b82818337600083830152505050565b6000612d13612d0e84612cc0565b612ca5565b905082815260208101848484011115612d2f57612d2e612c40565b5b612d3a848285612cf1565b509392505050565b600082601f830112612d5757612d56612c3b565b5b8135612d67848260208601612d00565b91505092915050565b60008060408385031215612d8757612d8661284c565b5b6000612d9585828601612a99565b925050602083013567ffffffffffffffff811115612db657612db5612851565b5b612dc285828601612d42565b9150509250929050565b612dd5816129c3565b82525050565b6000602082019050612df06000830184612dcc565b92915050565b612dff816128db565b8114612e0a57600080fd5b50565b600081359050612e1c81612df6565b92915050565b60008060408385031215612e3957612e3861284c565b5b6000612e4785828601612a99565b9250506020612e5885828601612e0d565b9150509250929050565b60008060008060808587031215612e7c57612e7b61284c565b5b6000612e8a87828801612a99565b9450506020612e9b87828801612a99565b9350506040612eac878288016129e4565b925050606085013567ffffffffffffffff811115612ecd57612ecc612851565b5b612ed987828801612d42565b91505092959194509250565b60008060408385031215612efc57612efb61284c565b5b6000612f0a85828601612a99565b9250506020612f1b85828601612a99565b9150509250929050565b7f4e487b7100000000000000000000000000000000000000000000000000000000600052602260045260246000fd5b60006002820490506001821680612f6c57607f821691505b602082108103612f7f57612f7e612f25565b5b50919050565b6000606082019050612f9a6000830186612a58565b612fa76020830185612dcc565b612fb46040830184612a58565b949350505050565b7f4e487b7100000000000000000000000000000000000000000000000000000000600052601160045260246000fd5b6000612ff6826129c3565b91507fffffffffffffffffffffffffffffffffffffffffffffffffffffffffffffffff820361302857613027612fbc565b5b600182019050919050565b6000819050919050565b600067ffffffffffffffff82169050919050565b6000819050919050565b600061307661307161306c84613033565b613051565b61303d565b9050919050565b6130868161305b565b82525050565b60006020820190506130a1600083018461307d565b92915050565b600081905092915050565b60006130bd82612911565b6130c781856130a7565b93506130d781856020860161292d565b80840191505092915050565b60006130ef82856130b2565b91506130fb82846130b2565b91508190509392505050565b60008151905061311681612b4b565b92915050565b6000602082840312156131325761313161284c565b5b600061314084828501613107565b91505092915050565b600081519050919050565b600082825260208201905092915050565b600061317082613149565b61317a8185613154565b935061318a81856020860161292d565b61319381612957565b840191505092915050565b60006080820190506131b36000830187612a58565b6131c06020830186612a58565b6131cd6040830185612dcc565b81810360608301526131df8184613165565b905095945050505050565b6000815190506131f981612882565b92915050565b6000602082840312156132155761321461284c565b5b6000613223848285016131ea565b91505092915050565b7f4e487b7100000000000000000000000000000000000000000000000000000000600052601260045260246000fd5b60006040820190506132706000830185612a58565b61327d6020830184612dcc565b9392505050565b60006040820190506132996000830185612a58565b6132a66020830184612ba4565b9392505050565b60008190508160005260206000209050919050565b60006020601f8301049050919050565b600082821b905092915050565b60006008830261330f7fffffffffffffffffffffffffffffffffffffffffffffffffffffffffffffffff826132d2565b61331986836132d2565b95508019841693508086168417925050509392505050565b600061334c613347613342846129c3565b613051565b6129c3565b9050919050565b6000819050919050565b61336683613331565b61337a61337282613353565b8484546132df565b825550505050565b600090565b61338f613382565b61339a81848461335d565b505050565b5b818110156133be576133b3600082613387565b6001810190506133a0565b5050565b601f821115613403576133d4816132ad565b6133dd846132c2565b810160208510156133ec578190505b6134006133f8856132c2565b83018261339f565b50505b505050565b600082821c905092915050565b600061342660001984600802613408565b1980831691505092915050565b600061343f8383613415565b9150826002028217905092915050565b61345882612911565b67ffffffffffffffff81111561347157613470612c45565b5b61347b8254612f54565b6134868282856133c2565b600060209050601f8311600181146134b957600084156134a7578287015190505b6134b18582613433565b865550613519565b601f1984166134c7866132ad565b60005b828110156134ef578489015182556001820191506020850194506020810190506134ca565b8683101561350c5784890151613508601f891682613415565b8355505b6001600288020188555050505b505050505050565b600081905092915050565b600061353782613149565b6135418185613521565b935061355181856020860161292d565b80840191505092915050565b6000613569828461352c565b91508190509291505056fea2646970667358221220f8f97bfc45dbac31ee405e41ccedabd6d9237831ebaa4aead94ef2e4c0895b8b64736f6c63430008140033",
  "linkReferences": {},
  "deployedLinkReferences": {}
}