{
  "_format": "hh-sol-artifact-1",
  "contractName": "WrappedEther",
  "sourceName": "contracts/WETH.sol",
  "abi": [
    {
      "inputs": [],
      "stateMutability": "nonpayable",
      "type": "constructor"
    },
    {
      "inputs": [
        {
          "internalType": "address",
          "name": "target",
          "type": "address"
        }
      ],
      "name": "AddressEmptyCode",
      "type": "error"
    },
    {
      "inputs": [
        {
          "internalType": "address",
          "name": "implementation",
          "type": "address"
        }
      ],
      "name": "ERC1967InvalidImplementation",
      "type": "error"
    },
    {
      "inputs": [],
      "name": "ERC1967NonPayable",
      "type": "error"
    },
    {
      "inputs": [
        {
          "internalType": "address",
          "name": "spender",
          "type": "address"
        },
        {
          "internalType": "uint256",
          "name": "allowance",
          "type": "uint256"
        },
        {
          "internalType": "uint256",
          "name": "needed",
          "type": "uint256"
        }
      ],
      "name": "ERC20InsufficientAllowance",
      "type": "error"
    },
    {
      "inputs": [
        {
          "internalType": "address",
          "name": "sender",
          "type": "address"
        },
        {
          "internalType": "uint256",
          "name": "balance",
          "type": "uint256"
        },
        {
          "internalType": "uint256",
          "name": "needed",
          "type": "uint256"
        }
      ],
      "name": "ERC20InsufficientBalance",
      "type": "error"
    },
    {
      "inputs": [
        {
          "internalType": "address",
          "name": "approver",
          "type": "address"
        }
      ],
      "name": "ERC20InvalidApprover",
      "type": "error"
    },
    {
      "inputs": [
        {
          "internalType": "address",
          "name": "receiver",
          "type": "address"
        }
      ],
      "name": "ERC20InvalidReceiver",
      "type": "error"
    },
    {
      "inputs": [
        {
          "internalType": "address",
          "name": "sender",
          "type": "address"
        }
      ],
      "name": "ERC20InvalidSender",
      "type": "error"
    },
    {
      "inputs": [
        {
          "internalType": "address",
          "name": "spender",
          "type": "address"
        }
      ],
      "name": "ERC20InvalidSpender",
      "type": "error"
    },
    {
      "inputs": [],
      "name": "FailedInnerCall",
      "type": "error"
    },
    {
      "inputs": [],
      "name": "InvalidInitialization",
      "type": "error"
    },
    {
      "inputs": [],
      "name": "NotInitializing",
      "type": "error"
    },
    {
      "inputs": [
        {
          "internalType": "address",
          "name": "owner",
          "type": "address"
        }
      ],
      "name": "OwnableInvalidOwner",
      "type": "error"
    },
    {
      "inputs": [
        {
          "internalType": "address",
          "name": "account",
          "type": "address"
        }
      ],
      "name": "OwnableUnauthorizedAccount",
      "type": "error"
    },
    {
      "inputs": [],
      "name": "UUPSUnauthorizedCallContext",
      "type": "error"
    },
    {
      "inputs": [
        {
          "internalType": "bytes32",
          "name": "slot",
          "type": "bytes32"
        }
      ],
      "name": "UUPSUnsupportedProxiableUUID",
      "type": "error"
    },
    {
      "anonymous": false,
      "inputs": [
        {
          "indexed": true,
          "internalType": "address",
          "name": "owner",
          "type": "address"
        },
        {
          "indexed": true,
          "internalType": "address",
          "name": "spender",
          "type": "address"
        },
        {
          "indexed": false,
          "internalType": "uint256",
          "name": "value",
          "type": "uint256"
        }
      ],
      "name": "Approval",
      "type": "event"
    },
    {
      "anonymous": false,
      "inputs": [
        {
          "indexed": false,
          "internalType": "uint64",
          "name": "version",
          "type": "uint64"
        }
      ],
      "name": "Initialized",
      "type": "event"
    },
    {
      "anonymous": false,
      "inputs": [
        {
          "indexed": true,
          "internalType": "address",
          "name": "previousOwner",
          "type": "address"
        },
        {
          "indexed": true,
          "internalType": "address",
          "name": "newOwner",
          "type": "address"
        }
      ],
      "name": "OwnershipTransferred",
      "type": "event"
    },
    {
      "anonymous": false,
      "inputs": [
        {
          "indexed": true,
          "internalType": "address",
          "name": "from",
          "type": "address"
        },
        {
          "indexed": true,
          "internalType": "address",
          "name": "to",
          "type": "address"
        },
        {
          "indexed": false,
          "internalType": "uint256",
          "name": "value",
          "type": "uint256"
        }
      ],
      "name": "Transfer",
      "type": "event"
    },
    {
      "anonymous": false,
      "inputs": [
        {
          "indexed": true,
          "internalType": "address",
          "name": "implementation",
          "type": "address"
        }
      ],
      "name": "Upgraded",
      "type": "event"
    },
    {
      "inputs": [],
      "name": "UPGRADE_INTERFACE_VERSION",
      "outputs": [
        {
          "internalType": "string",
          "name": "",
          "type": "string"
        }
      ],
      "stateMutability": "view",
      "type": "function"
    },
    {
      "inputs": [
        {
          "internalType": "address",
          "name": "owner",
          "type": "address"
        },
        {
          "internalType": "address",
          "name": "spender",
          "type": "address"
        }
      ],
      "name": "allowance",
      "outputs": [
        {
          "internalType": "uint256",
          "name": "",
          "type": "uint256"
        }
      ],
      "stateMutability": "view",
      "type": "function"
    },
    {
      "inputs": [
        {
          "internalType": "address",
          "name": "spender",
          "type": "address"
        },
        {
          "internalType": "uint256",
          "name": "value",
          "type": "uint256"
        }
      ],
      "name": "approve",
      "outputs": [
        {
          "internalType": "bool",
          "name": "",
          "type": "bool"
        }
      ],
      "stateMutability": "nonpayable",
      "type": "function"
    },
    {
      "inputs": [
        {
          "internalType": "address",
          "name": "account",
          "type": "address"
        }
      ],
      "name": "balanceOf",
      "outputs": [
        {
          "internalType": "uint256",
          "name": "",
          "type": "uint256"
        }
      ],
      "stateMutability": "view",
      "type": "function"
    },
    {
      "inputs": [],
      "name": "decimals",
      "outputs": [
        {
          "internalType": "uint8",
          "name": "",
          "type": "uint8"
        }
      ],
      "stateMutability": "view",
      "type": "function"
    },
    {
      "inputs": [
        {
          "internalType": "address",
          "name": "initialOwner",
          "type": "address"
        }
      ],
      "name": "initialize",
      "outputs": [],
      "stateMutability": "nonpayable",
      "type": "function"
    },
    {
      "inputs": [
        {
          "internalType": "address",
          "name": "to",
          "type": "address"
        },
        {
          "internalType": "uint256",
          "name": "amount",
          "type": "uint256"
        }
      ],
      "name": "mint",
      "outputs": [],
      "stateMutability": "nonpayable",
      "type": "function"
    },
    {
      "inputs": [],
      "name": "name",
      "outputs": [
        {
          "internalType": "string",
          "name": "",
          "type": "string"
        }
      ],
      "stateMutability": "view",
      "type": "function"
    },
    {
      "inputs": [],
      "name": "owner",
      "outputs": [
        {
          "internalType": "address",
          "name": "",
          "type": "address"
        }
      ],
      "stateMutability": "view",
      "type": "function"
    },
    {
      "inputs": [],
      "name": "proxiableUUID",
      "outputs": [
        {
          "internalType": "bytes32",
          "name": "",
          "type": "bytes32"
        }
      ],
      "stateMutability": "view",
      "type": "function"
    },
    {
      "inputs": [],
      "name": "renounceOwnership",
      "outputs": [],
      "stateMutability": "nonpayable",
      "type": "function"
    },
    {
      "inputs": [],
      "name": "symbol",
      "outputs": [
        {
          "internalType": "string",
          "name": "",
          "type": "string"
        }
      ],
      "stateMutability": "view",
      "type": "function"
    },
    {
      "inputs": [],
      "name": "totalSupply",
      "outputs": [
        {
          "internalType": "uint256",
          "name": "",
          "type": "uint256"
        }
      ],
      "stateMutability": "view",
      "type": "function"
    },
    {
      "inputs": [
        {
          "internalType": "address",
          "name": "to",
          "type": "address"
        },
        {
          "internalType": "uint256",
          "name": "value",
          "type": "uint256"
        }
      ],
      "name": "transfer",
      "outputs": [
        {
          "internalType": "bool",
          "name": "",
          "type": "bool"
        }
      ],
      "stateMutability": "nonpayable",
      "type": "function"
    },
    {
      "inputs": [
        {
          "internalType": "address",
          "name": "from",
          "type": "address"
        },
        {
          "internalType": "address",
          "name": "to",
          "type": "address"
        },
        {
          "internalType": "uint256",
          "name": "value",
          "type": "uint256"
        }
      ],
      "name": "transferFrom",
      "outputs": [
        {
          "internalType": "bool",
          "name": "",
          "type": "bool"
        }
      ],
      "stateMutability": "nonpayable",
      "type": "function"
    },
    {
      "inputs": [
        {
          "internalType": "address",
          "name": "newOwner",
          "type": "address"
        }
      ],
      "name": "transferOwnership",
      "outputs": [],
      "stateMutability": "nonpayable",
      "type": "function"
    },
    {
      "inputs": [
        {
          "internalType": "address",
          "name": "newImplementation",
          "type": "address"
        },
        {
          "internalType": "bytes",
          "name": "data",
          "type": "bytes"
        }
      ],
      "name": "upgradeToAndCall",
      "outputs": [],
      "stateMutability": "payable",
      "type": "function"
    }
  ],
  "bytecode": "0x60a06040523073ffffffffffffffffffffffffffffffffffffffff1660809073ffffffffffffffffffffffffffffffffffffffff168152503480156200004457600080fd5b50620000556200005b60201b60201c565b620001cf565b60006200006d6200016560201b60201c565b90508060000160089054906101000a900460ff1615620000b9576040517ff92ee8a900000000000000000000000000000000000000000000000000000000815260040160405180910390fd5b67ffffffffffffffff80168160000160009054906101000a900467ffffffffffffffff1667ffffffffffffffff1614620001625767ffffffffffffffff8160000160006101000a81548167ffffffffffffffff021916908367ffffffffffffffff1602179055507fc7f505b2f371ae2175ee4913f4499e1f2633a7b5936321eed1cdaeb6115181d267ffffffffffffffff604051620001599190620001b2565b60405180910390a15b50565b60007ff0c57e16840df040f15088dc2f81fe391c3923bec73e23a9662efc9c229c6a00905090565b600067ffffffffffffffff82169050919050565b620001ac816200018d565b82525050565b6000602082019050620001c96000830184620001a1565b92915050565b608051612343620001f960003960008181610d2601528181610d7b0152610f3601526123436000f3fe6080604052600436106100fe5760003560e01c806370a0823111610095578063a9059cbb11610064578063a9059cbb14610318578063ad3cb1cc14610355578063c4d66de814610380578063dd62ed3e146103a9578063f2fde38b146103e6576100fe565b806370a082311461026e578063715018a6146102ab5780638da5cb5b146102c257806395d89b41146102ed576100fe565b8063313ce567116100d1578063313ce567146101d357806340c10f19146101fe5780634f1ef2861461022757806352d1902d14610243576100fe565b806306fdde0314610103578063095ea7b31461012e57806318160ddd1461016b57806323b872dd14610196575b600080fd5b34801561010f57600080fd5b5061011861040f565b6040516101259190611a24565b60405180910390f35b34801561013a57600080fd5b5061015560048036038101906101509190611aee565b6104b0565b6040516101629190611b49565b60405180910390f35b34801561017757600080fd5b506101806104d3565b60405161018d9190611b73565b60405180910390f35b3480156101a257600080fd5b506101bd60048036038101906101b89190611b8e565b6104eb565b6040516101ca9190611b49565b60405180910390f35b3480156101df57600080fd5b506101e861051a565b6040516101f59190611bfd565b60405180910390f35b34801561020a57600080fd5b5061022560048036038101906102209190611aee565b610523565b005b610241600480360381019061023c9190611d4d565b610539565b005b34801561024f57600080fd5b50610258610558565b6040516102659190611dc2565b60405180910390f35b34801561027a57600080fd5b5061029560048036038101906102909190611ddd565b61058b565b6040516102a29190611b73565b60405180910390f35b3480156102b757600080fd5b506102c06105e2565b005b3480156102ce57600080fd5b506102d76105f6565b6040516102e49190611e19565b60405180910390f35b3480156102f957600080fd5b5061030261062e565b60405161030f9190611a24565b60405180910390f35b34801561032457600080fd5b5061033f600480360381019061033a9190611aee565b6106cf565b60405161034c9190611b49565b60405180910390f35b34801561036157600080fd5b5061036a6106f2565b6040516103779190611a24565b60405180910390f35b34801561038c57600080fd5b506103a760048036038101906103a29190611ddd565b61072b565b005b3480156103b557600080fd5b506103d060048036038101906103cb9190611e34565b610936565b6040516103dd9190611b73565b60405180910390f35b3480156103f257600080fd5b5061040d60048036038101906104089190611ddd565b6109cb565b005b6060600061041b610a51565b905080600301805461042c90611ea3565b80601f016020809104026020016040519081016040528092919081815260200182805461045890611ea3565b80156104a55780601f1061047a576101008083540402835291602001916104a5565b820191906000526020600020905b81548152906001019060200180831161048857829003601f168201915b505050505091505090565b6000806104bb610a79565b90506104c8818585610a81565b600191505092915050565b6000806104de610a51565b9050806002015491505090565b6000806104f6610a79565b9050610503858285610a93565b61050e858585610b27565b60019150509392505050565b60006012905090565b61052b610c1b565b6105358282610ca2565b5050565b610541610d24565b61054a82610e0a565b6105548282610e15565b5050565b6000610562610f34565b7f360894a13ba1a3210667c828492db98dca3e2076cc3735a920a3ca505d382bbc60001b905090565b600080610596610a51565b90508060000160008473ffffffffffffffffffffffffffffffffffffffff1673ffffffffffffffffffffffffffffffffffffffff16815260200190815260200160002054915050919050565b6105ea610c1b565b6105f46000610fbb565b565b600080610601611092565b90508060000160009054906101000a900473ffffffffffffffffffffffffffffffffffffffff1691505090565b6060600061063a610a51565b905080600401805461064b90611ea3565b80601f016020809104026020016040519081016040528092919081815260200182805461067790611ea3565b80156106c45780601f10610699576101008083540402835291602001916106c4565b820191906000526020600020905b8154815290600101906020018083116106a757829003601f168201915b505050505091505090565b6000806106da610a79565b90506106e7818585610b27565b600191505092915050565b6040518060400160405280600581526020017f352e302e3000000000000000000000000000000000000000000000000000000081525081565b60006107356110ba565b905060008160000160089054906101000a900460ff1615905060008260000160009054906101000a900467ffffffffffffffff1690506000808267ffffffffffffffff161480156107835750825b9050600060018367ffffffffffffffff161480156107b8575060003073ffffffffffffffffffffffffffffffffffffffff163b145b9050811580156107c6575080155b156107fd576040517ff92ee8a900000000000000000000000000000000000000000000000000000000815260040160405180910390fd5b60018560000160006101000a81548167ffffffffffffffff021916908367ffffffffffffffff160217905550831561084d5760018560000160086101000a81548160ff0219169083151502179055505b6108c16040518060400160405280600d81526020017f57726170706564204574686572000000000000000000000000000000000000008152506040518060400160405280600481526020017f57455448000000000000000000000000000000000000000000000000000000008152506110e2565b6108ca866110f8565b6108d261110c565b831561092e5760008560000160086101000a81548160ff0219169083151502179055507fc7f505b2f371ae2175ee4913f4499e1f2633a7b5936321eed1cdaeb6115181d260016040516109259190611f2d565b60405180910390a15b505050505050565b600080610941610a51565b90508060010160008573ffffffffffffffffffffffffffffffffffffffff1673ffffffffffffffffffffffffffffffffffffffff16815260200190815260200160002060008473ffffffffffffffffffffffffffffffffffffffff1673ffffffffffffffffffffffffffffffffffffffff1681526020019081526020016000205491505092915050565b6109d3610c1b565b600073ffffffffffffffffffffffffffffffffffffffff168173ffffffffffffffffffffffffffffffffffffffff1603610a455760006040517f1e4fbdf7000000000000000000000000000000000000000000000000000000008152600401610a3c9190611e19565b60405180910390fd5b610a4e81610fbb565b50565b60007f52c63247e1f47db19d5ce0460030c497f067ca4cebf71ba98eeadabe20bace00905090565b600033905090565b610a8e8383836001611116565b505050565b6000610a9f8484610936565b90507fffffffffffffffffffffffffffffffffffffffffffffffffffffffffffffffff8114610b215781811015610b11578281836040517ffb8f41b2000000000000000000000000000000000000000000000000000000008152600401610b0893929190611f48565b60405180910390fd5b610b2084848484036000611116565b5b50505050565b600073ffffffffffffffffffffffffffffffffffffffff168373ffffffffffffffffffffffffffffffffffffffff1603610b995760006040517f96c6fd1e000000000000000000000000000000000000000000000000000000008152600401610b909190611e19565b60405180910390fd5b600073ffffffffffffffffffffffffffffffffffffffff168273ffffffffffffffffffffffffffffffffffffffff1603610c0b5760006040517fec442f05000000000000000000000000000000000000000000000000000000008152600401610c029190611e19565b60405180910390fd5b610c168383836112fc565b505050565b610c23610a79565b73ffffffffffffffffffffffffffffffffffffffff16610c416105f6565b73ffffffffffffffffffffffffffffffffffffffff1614610ca057610c64610a79565b6040517f118cdaa7000000000000000000000000000000000000000000000000000000008152600401610c979190611e19565b60405180910390fd5b565b600073ffffffffffffffffffffffffffffffffffffffff168273ffffffffffffffffffffffffffffffffffffffff1603610d145760006040517fec442f05000000000000000000000000000000000000000000000000000000008152600401610d0b9190611e19565b60405180910390fd5b610d20600083836112fc565b5050565b7f000000000000000000000000000000000000000000000000000000000000000073ffffffffffffffffffffffffffffffffffffffff163073ffffffffffffffffffffffffffffffffffffffff161480610dd157507f000000000000000000000000000000000000000000000000000000000000000073ffffffffffffffffffffffffffffffffffffffff16610db861153b565b73ffffffffffffffffffffffffffffffffffffffff1614155b15610e08576040517fe07c8dba00000000000000000000000000000000000000000000000000000000815260040160405180910390fd5b565b610e12610c1b565b50565b8173ffffffffffffffffffffffffffffffffffffffff166352d1902d6040518163ffffffff1660e01b8152600401602060405180830381865afa925050508015610e7d57506040513d601f19601f82011682018060405250810190610e7a9190611fab565b60015b610ebe57816040517f4c9c8ce3000000000000000000000000000000000000000000000000000000008152600401610eb59190611e19565b60405180910390fd5b7f360894a13ba1a3210667c828492db98dca3e2076cc3735a920a3ca505d382bbc60001b8114610f2557806040517faa1d49a4000000000000000000000000000000000000000000000000000000008152600401610f1c9190611dc2565b60405180910390fd5b610f2f8383611592565b505050565b7f000000000000000000000000000000000000000000000000000000000000000073ffffffffffffffffffffffffffffffffffffffff163073ffffffffffffffffffffffffffffffffffffffff1614610fb9576040517fe07c8dba00000000000000000000000000000000000000000000000000000000815260040160405180910390fd5b565b6000610fc5611092565b905060008160000160009054906101000a900473ffffffffffffffffffffffffffffffffffffffff169050828260000160006101000a81548173ffffffffffffffffffffffffffffffffffffffff021916908373ffffffffffffffffffffffffffffffffffffffff1602179055508273ffffffffffffffffffffffffffffffffffffffff168173ffffffffffffffffffffffffffffffffffffffff167f8be0079c531659141344cd1fd0a4f28419497f9722a3daafe3b4186f6b6457e060405160405180910390a3505050565b60007f9016d09d72d40fdae2fd8ceac6b6234c7706214fd39c1cd1e609a0528c199300905090565b60007ff0c57e16840df040f15088dc2f81fe391c3923bec73e23a9662efc9c229c6a00905090565b6110ea611605565b6110f48282611645565b5050565b611100611605565b61110981611682565b50565b611114611605565b565b6000611120610a51565b9050600073ffffffffffffffffffffffffffffffffffffffff168573ffffffffffffffffffffffffffffffffffffffff16036111945760006040517fe602df0500000000000000000000000000000000000000000000000000000000815260040161118b9190611e19565b60405180910390fd5b600073ffffffffffffffffffffffffffffffffffffffff168473ffffffffffffffffffffffffffffffffffffffff16036112065760006040517f94280d620000000000000000000000000000000000000000000000000000000081526004016111fd9190611e19565b60405180910390fd5b828160010160008773ffffffffffffffffffffffffffffffffffffffff1673ffffffffffffffffffffffffffffffffffffffff16815260200190815260200160002060008673ffffffffffffffffffffffffffffffffffffffff1673ffffffffffffffffffffffffffffffffffffffff1681526020019081526020016000208190555081156112f5578373ffffffffffffffffffffffffffffffffffffffff168573ffffffffffffffffffffffffffffffffffffffff167f8c5be1e5ebec7d5bd14f71427d1e84f3dd0314c0f7b2291e5b200ac8c7c3b925856040516112ec9190611b73565b60405180910390a35b5050505050565b6000611306610a51565b9050600073ffffffffffffffffffffffffffffffffffffffff168473ffffffffffffffffffffffffffffffffffffffff160361135c57818160020160008282546113509190612007565b92505081905550611435565b60008160000160008673ffffffffffffffffffffffffffffffffffffffff1673ffffffffffffffffffffffffffffffffffffffff168152602001908152602001600020549050828110156113eb578481846040517fe450d38c0000000000000000000000000000000000000000000000000000000081526004016113e293929190611f48565b60405180910390fd5b8281038260000160008773ffffffffffffffffffffffffffffffffffffffff1673ffffffffffffffffffffffffffffffffffffffff16815260200190815260200160002081905550505b600073ffffffffffffffffffffffffffffffffffffffff168373ffffffffffffffffffffffffffffffffffffffff1603611480578181600201600082825403925050819055506114d0565b818160000160008573ffffffffffffffffffffffffffffffffffffffff1673ffffffffffffffffffffffffffffffffffffffff168152602001908152602001600020600082825401925050819055505b8273ffffffffffffffffffffffffffffffffffffffff168473ffffffffffffffffffffffffffffffffffffffff167fddf252ad1be2c89b69c2b068fc378daa952ba7f163c4a11628f55a4df523b3ef8460405161152d9190611b73565b60405180910390a350505050565b60006115697f360894a13ba1a3210667c828492db98dca3e2076cc3735a920a3ca505d382bbc60001b611708565b60000160009054906101000a900473ffffffffffffffffffffffffffffffffffffffff16905090565b61159b82611712565b8173ffffffffffffffffffffffffffffffffffffffff167fbc7cd75a20ee27fd9adebab32041f755214dbc6bffa90cc0225b39da2e5c2d3b60405160405180910390a26000815111156115f8576115f282826117df565b50611601565b611600611863565b5b5050565b61160d6118a0565b611643576040517fd7e6bcf800000000000000000000000000000000000000000000000000000000815260040160405180910390fd5b565b61164d611605565b6000611657610a51565b90508281600301908161166a91906121dd565b508181600401908161167c91906121dd565b50505050565b61168a611605565b600073ffffffffffffffffffffffffffffffffffffffff168173ffffffffffffffffffffffffffffffffffffffff16036116fc5760006040517f1e4fbdf70000000000000000000000000000000000000000000000000000000081526004016116f39190611e19565b60405180910390fd5b61170581610fbb565b50565b6000819050919050565b60008173ffffffffffffffffffffffffffffffffffffffff163b0361176e57806040517f4c9c8ce30000000000000000000000000000000000000000000000000000000081526004016117659190611e19565b60405180910390fd5b8061179b7f360894a13ba1a3210667c828492db98dca3e2076cc3735a920a3ca505d382bbc60001b611708565b60000160006101000a81548173ffffffffffffffffffffffffffffffffffffffff021916908373ffffffffffffffffffffffffffffffffffffffff16021790555050565b60606000808473ffffffffffffffffffffffffffffffffffffffff168460405161180991906122f6565b600060405180830381855af49150503d8060008114611844576040519150601f19603f3d011682016040523d82523d6000602084013e611849565b606091505b50915091506118598583836118c0565b9250505092915050565b600034111561189e576040517fb398979f00000000000000000000000000000000000000000000000000000000815260040160405180910390fd5b565b60006118aa6110ba565b60000160089054906101000a900460ff16905090565b6060826118d5576118d08261194f565b611947565b600082511480156118fd575060008473ffffffffffffffffffffffffffffffffffffffff163b145b1561193f57836040517f9996b3150000000000000000000000000000000000000000000000000000000081526004016119369190611e19565b60405180910390fd5b819050611948565b5b9392505050565b6000815111156119625780518082602001fd5b6040517f1425ea4200000000000000000000000000000000000000000000000000000000815260040160405180910390fd5b600081519050919050565b600082825260208201905092915050565b60005b838110156119ce5780820151818401526020810190506119b3565b60008484015250505050565b6000601f19601f8301169050919050565b60006119f682611994565b611a00818561199f565b9350611a108185602086016119b0565b611a19816119da565b840191505092915050565b60006020820190508181036000830152611a3e81846119eb565b905092915050565b6000604051905090565b600080fd5b600080fd5b600073ffffffffffffffffffffffffffffffffffffffff82169050919050565b6000611a8582611a5a565b9050919050565b611a9581611a7a565b8114611aa057600080fd5b50565b600081359050611ab281611a8c565b92915050565b6000819050919050565b611acb81611ab8565b8114611ad657600080fd5b50565b600081359050611ae881611ac2565b92915050565b60008060408385031215611b0557611b04611a50565b5b6000611b1385828601611aa3565b9250506020611b2485828601611ad9565b9150509250929050565b60008115159050919050565b611b4381611b2e565b82525050565b6000602082019050611b5e6000830184611b3a565b92915050565b611b6d81611ab8565b82525050565b6000602082019050611b886000830184611b64565b92915050565b600080600060608486031215611ba757611ba6611a50565b5b6000611bb586828701611aa3565b9350506020611bc686828701611aa3565b9250506040611bd786828701611ad9565b9150509250925092565b600060ff82169050919050565b611bf781611be1565b82525050565b6000602082019050611c126000830184611bee565b92915050565b600080fd5b600080fd5b7f4e487b7100000000000000000000000000000000000000000000000000000000600052604160045260246000fd5b611c5a826119da565b810181811067ffffffffffffffff82111715611c7957611c78611c22565b5b80604052505050565b6000611c8c611a46565b9050611c988282611c51565b919050565b600067ffffffffffffffff821115611cb857611cb7611c22565b5b611cc1826119da565b9050602081019050919050565b82818337600083830152505050565b6000611cf0611ceb84611c9d565b611c82565b905082815260208101848484011115611d0c57611d0b611c1d565b5b611d17848285611cce565b509392505050565b600082601f830112611d3457611d33611c18565b5b8135611d44848260208601611cdd565b91505092915050565b60008060408385031215611d6457611d63611a50565b5b6000611d7285828601611aa3565b925050602083013567ffffffffffffffff811115611d9357611d92611a55565b5b611d9f85828601611d1f565b9150509250929050565b6000819050919050565b611dbc81611da9565b82525050565b6000602082019050611dd76000830184611db3565b92915050565b600060208284031215611df357611df2611a50565b5b6000611e0184828501611aa3565b91505092915050565b611e1381611a7a565b82525050565b6000602082019050611e2e6000830184611e0a565b92915050565b60008060408385031215611e4b57611e4a611a50565b5b6000611e5985828601611aa3565b9250506020611e6a85828601611aa3565b9150509250929050565b7f4e487b7100000000000000000000000000000000000000000000000000000000600052602260045260246000fd5b60006002820490506001821680611ebb57607f821691505b602082108103611ece57611ecd611e74565b5b50919050565b6000819050919050565b600067ffffffffffffffff82169050919050565b6000819050919050565b6000611f17611f12611f0d84611ed4565b611ef2565b611ede565b9050919050565b611f2781611efc565b82525050565b6000602082019050611f426000830184611f1e565b92915050565b6000606082019050611f5d6000830186611e0a565b611f6a6020830185611b64565b611f776040830184611b64565b949350505050565b611f8881611da9565b8114611f9357600080fd5b50565b600081519050611fa581611f7f565b92915050565b600060208284031215611fc157611fc0611a50565b5b6000611fcf84828501611f96565b91505092915050565b7f4e487b7100000000000000000000000000000000000000000000000000000000600052601160045260246000fd5b600061201282611ab8565b915061201d83611ab8565b925082820190508082111561203557612034611fd8565b5b92915050565b60008190508160005260206000209050919050565b60006020601f8301049050919050565b600082821b905092915050565b60006008830261209d7fffffffffffffffffffffffffffffffffffffffffffffffffffffffffffffffff82612060565b6120a78683612060565b95508019841693508086168417925050509392505050565b60006120da6120d56120d084611ab8565b611ef2565b611ab8565b9050919050565b6000819050919050565b6120f4836120bf565b612108612100826120e1565b84845461206d565b825550505050565b600090565b61211d612110565b6121288184846120eb565b505050565b5b8181101561214c57612141600082612115565b60018101905061212e565b5050565b601f821115612191576121628161203b565b61216b84612050565b8101602085101561217a578190505b61218e61218685612050565b83018261212d565b50505b505050565b600082821c905092915050565b60006121b460001984600802612196565b1980831691505092915050565b60006121cd83836121a3565b9150826002028217905092915050565b6121e682611994565b67ffffffffffffffff8111156121ff576121fe611c22565b5b6122098254611ea3565b612214828285612150565b600060209050601f8311600181146122475760008415612235578287015190505b61223f85826121c1565b8655506122a7565b601f1984166122558661203b565b60005b8281101561227d57848901518255600182019150602085019450602081019050612258565b8683101561229a5784890151612296601f8916826121a3565b8355505b6001600288020188555050505b505050505050565b600081519050919050565b600081905092915050565b60006122d0826122af565b6122da81856122ba565b93506122ea8185602086016119b0565b80840191505092915050565b600061230282846122c5565b91508190509291505056fea2646970667358221220b82f924f4dbab3cc8078c7806b9062c064938e2bd7284fc0257c5df307ea1a7264736f6c63430008140033",
  "linkReferences": {},
  "deployedLinkReferences": {}
}